:020000001028C6
:10000800A000030EA1000B1854200B194420210E48
:100018008300A00E200E0900031383160F308600FC
:10002800031783168901031383160030870003130F
:1000380083160030880003138316043081000313ED
:1000480083160F30950003138312B8308B00031307
:1000580083160F3096000313831281010313831252
:1000680000308600031383120030870003138312C5
:1000780000308800A201A301A401A501962042280E
:10008800031383128101A20A4B200B1108000313EA
:100098008312081C50285228081408000810080069
:1000A80083120313A301A4010812881608178817DE
:1000B8000130A300812024187D280816881208170B
:1000C80088170230A300812024187D280816881676
:1000D800081388170430A300812024187D280816E7
:1000E8008816081788130830A300812024187D2853
:1000F800A30188018B100B100800061C8A28861C97
:100108008D28061D9028861D932808002316241480
:100118000800A31624140800231724140800A317A2
:1001280024140800BB200313831287012508053C0B
:100138000319A3282508063C0319A928AF28071482
:10014800B4208714B420871008000710B42087143F
:10015800B420871008000710B4208710B4200800C6
:100168002208A600220826020319B62808008312CE
:1001780003130301A31FC128003E231FC428013E07
:10018800A31EC728023E231ECA28033EA31DCD284E
:10019800003E231DD028043EA31CD328083E231C60
:0801A800D6280C3EA50008005A
:04400E00F120FF3F5F
:00000001FF
